:100000000C94B5010C94DD010C94DD010C94DD0120
:100010000C94DD010C94DD010C94DD010C94DD01E8
:100020000C94DD010C94DD010C94DD010C94DD01D8
:100030000C94DD010C94DD010C94DD010C94DD01C8
:100040000C9484140C94DD010C9405170C94DD01C0
:100050000C94DD010C94DD010C94DD010C94DD01A8
:100060000C944B060C94DD0148656C703A0A0057FD
:100070006F72647320616E642063617465676F7270
:1000800079207469746C65732063616E206F6E6C87
:10009000792062652031352063686172616374651F
:1000A0007273206C6F6E6721006C697374206361DA
:1000B0007465676F7269657300616464206361745D
:1000C00065676F727920287469746C6529006C69A2
:1000D000737420776F726473202863617465676F2F
:1000E00072792D6E756D6265722900616464207786
:1000F0006F7264202863617465676F72792D6E7505
:100100006D62657220776F7264290072656E616D31
:10011000652063617465676F727920286361746517
:10012000676F72792D6E756D626572207469746C7B
:10013000652900636C65617220616C6C00636C659D
:10014000617220776F726473202863617465676FD2
:1001500072792D6E756D62657229006C69737420F9
:10016000616C6C00456E746572696E672055534210
:10017000204D6F6465004E6F20776F726473206945
:100180006E20746861742063617465676F727900B2
:10019000526F756E64206F766572212020202020BA
:1001A00053636F72653A2000546573747320636FF4
:1001B0006D706C6574652E004E6F206361746567A9
:1001C0006F7269657320646566696E6564003130BD
:1001D000207365636F6E6420627574746F6E207433
:1001E00065737420626567696E6E696E672E004282
:1001F0007574746F6E20312072656C65617365640F
:100200002E00427574746F6E2031206465707265C3
:10021000737365642E004B6C7567657068726173EB
:10022000650043686F6F73652063617465676F7203
:10023000793A004D41494E2053435245454E205492
:1002400055524E204F4E002A62757A7A2A00555335
:1002500042206D6F6465006665656C736C696B65E3
:100260006275726E696E672E636F6D2F6B6C75674A
:1002700065706872617365005061757365642E0006
:1002800045786974696E672E0043617465676F72A3
:10029000792066756C6C2E004E6F206D6F72652034
:1002A000617661696C61626C652063617465676F1A
:1002B000726965732E00416464696E6720636174BE
:1002C00065676F727900416464696E6720776F7249
:1002D0006400436C656172696E670068006F00A915
:1002E00000B900CE00EB000B0133013D015B01645E
:1002F0000176019001A801B801CE01EF01020216BA
:10030000022202330247024E02570278028002891B
:10031000029802B602C602D202000024272A000078
:1003200025282B00002326290404040404040404C3
:100330000202020202020303030303030102040890
:10034000102040800102040810200102040810203F
:100350000000000700020100000304060000000086
:1003600000000000D704FC07DC1211241FBECFEFF1
:10037000D4E0DEBFCDBF11E0A0E0B1E0E6E7F7E3F7
:1003800002C005900D92A235B107D9F712E0A2E59F
:10039000B1E001C01D92A935B107E1F713E0CAE64B
:1003A000D3E004C02297FE010E947E1BC436D10711
:1003B000C9F70E94D5120C94B91B0C940000FC01E3
:1003C00044835583668377830895FC01808590E09C
:1003D00008951F93CF93DF93EC0189850E943F1608
:1003E000182F88858117E9F00E94E114288139814E
:1003F0004A815B81621B730B840B950B2C813D81C1
:100400004E815F81621773078407950750F00E9441
:10041000E114688379838A839B83188721E030E025
:1004200002C020E030E0C901DF91CF911F91089513
:10043000FF920F931F938C01F22EFC01448355838E
:10044000668377830E94E114F8016083718382835D
:1004500093838F2D0E943F16F8018087F1861F91AC
:100460000F91FF900895FF920F931F938C01F22E2E
:10047000FC0144835583668377830E94E114F8016D
:1004800060837183828393838F2D0E943F16F801CE
:100490008087F1861F910F91FF900895FC0160877E
:1004A00081850E94F4150895AF92BF92CF92DF929A
:1004B000EF92FF920F931F93CF93DF938C01B62E91
:1004C000642FFC0183810E94F41560E0F8018481AF
:1004D0000E94F415F80182818823C9F1680178012E
:1004E000C4E0D0E0AB2CBB24B5010C2E02C0759546
:1004F00067950A94E2F76170F70186810E94F4150E
:1005000021960894E11CF11CC830D10569F761E01F
:10051000F80185810E94F41560E0F80185810E9450
:10052000F415C0E0D0E0B5010C2E02C075956795BA
:100530000A94E2F76170F60186810E94F415219613
:100540000894C11CD11CC430D10569F718C07801CA
:10055000C0E0D0E0CB2CDD24B6010C2E02C0759596
:1005600067950A94E2F76170F70186810E94F4159D
:1005700021960894E11CF11CC830D10569F761E0AF
:10058000F80185810E94F41560E0F80185810E94E0
:10059000F415DF91CF911F910F91FF90EF90DF90B5
:1005A000CF90BF90AF90089541E00E94540208950B
:1005B00040E00E9454020895DF93CF93CDB7DEB799
:1005C00028970FB6F894DEBF0FBECDBF362FFA01C5
:1005D000AE014F5F5F4F66E071E028E0DB010D90F8
:1005E000BD01DA010D92AD012150C1F7EE0FFF1FE1
:1005F000EC0FFD1F6181630F60680E94D80228968E
:100600000FB6F894DEBF0FBECDBFCF91DF91089536
:1006100062E00E94D80280ED97E00E9419150895CB
:1006200061E00E94D80280ED97E00E9419150895BC
:100630008F929F92AF92CF92EF920F934C01862FA1
:1006400064E071E0F4017183608391E092838383BD
:10065000448325830683E782C086A18661E00E94E9
:10066000D61561E0F40184810E94D61561E0F401A1
:1006700085810E94D61561E0F40186810E94D6151D
:1006800061E0F40187810E94D61561E0F401808564
:100690000E94D61561E0F40181850E94D61568E2BA
:1006A000C4010E94D8026CE0C4010E94D80266E036
:1006B000C4010E94D802C4010E9410030F91EF9060
:1006C000CF90AF909F908F9008958F929F92AF920E
:1006D000CF92EF920F934C01862F64E071E0F4010A
:1006E0007183608391E092838383448325830683AF
:1006F000E782C086A18661E00E94D61561E0F40120
:1007000084810E94D61561E0F40185810E94D6158E
:1007100061E0F40186810E94D61561E0F4018781D1
:100720000E94D61561E0F40180850E94D61561E033
:10073000F40181850E94D61568E2C4010E94D802A6
:100740006CE0C4010E94D80266E0C4010E94D80295
:10075000C4010E9410030F91EF90CF90AF909F9033
:100760008F9008956F927F928F92AF92CF92EF9277
:10077000FF920F931F93DF93CF93CDB7DEB73C016A
:10078000862F64E071E0F3017183608312828383BA
:10079000448325830683E782C086A18682869E8560
:1007A00093879F8594879889958761E00E94D615E5
:1007B00061E0F30184810E94D61561E0F301858137
:1007C0000E94D615730100E010E061E0F701868118
:1007D0000E94D6150F5F1F4F0894E11CF11C0830D2
:1007E000110599F768E3C3010E94D8026CE0C301C8
:1007F0000E94D80266E0C3010E94D802C3010E9491
:100800001003CF91DF911F910F91FF90EF90CF9048
:10081000AF908F907F906F9008956F927F928F929C
:10082000AF92CF92EF92FF920F931F93DF93CF93EC
:10083000CDB7DEB73C01862F64E071E0F301718330
:10084000608312828383448325830683E782C08684
:10085000A18682869E8593879F85948798899587B0
:1008600061E00E94D61561E0F30184810E94D615F3
:1008700061E0F30185810E94D615730100E010E06C
:1008800061E0F70186810E94D6150F5F1F4F089423
:10089000E11CF11C0830110599F768E3C3010E94BF
:1008A000D8026CE0C3010E94D80266E0C3010E9436
:1008B000D802C3010E941003CF91DF911F910F91C5
:1008C000FF90EF90CF90AF908F907F906F900895B2
:1008D0000895089581E080935B0160935601109222
:1008E000590110925A01089581E080935B01609351
:1008F00056011092590110925A01089580915501A4
:1009000090915401891B0895909154018091550153
:10091000981710F080E00895E0915201F091530192
:10092000E90FF11D80819F5F9093540108959C0110
:1009300080915E0190915F01892B11F1909154019A
:10094000809155019817E0F090E00BC0E0915201C2
:10095000F0915301EA0FFB1FA20FB31F8C9180830C
:100960009F5FA92FB0E0A617B70784F31092540138
:1009700060935501E0915E01F0915F01CB01099513
:100980000895E0915C01F0915D01309729F010929B
:10099000590110925A010995089570935F0160936F
:1009A0005E01089570935D0160935C010895089560
:1009B000DF93CF930F92CDB7DEB7698380915B0150
:1009C0008823A9F080915A018032B0F480915901B6
:1009D000E0915701F0915801E80FF11D608380917B
:1009E00059018F5F8093590180935A0105C061E0DE
:1009F000CE0101960E940C060F90CF91DF910895D1
:100A00000E94D8040895EF92FF920F931F93CF9303
:100A1000DF937C01262F042F80915B01882361F0F6
:100A2000372FE90110E005C06991C7010E94D80481
:100A30001F5F1017C8F305C0642F822F972F0E94E5
:100A40000C06DF91CF911F910F91FF90EF900895C9
:100A5000FB0101900020E9F73197E61BF70B4E2FC1
:100A60000E9403050895609157017091580121E09B
:100A700040915A01809156010E94C7051092590178
:100A800010925A0110925B010895862F413208F0AE
:100A900040E260915201709153010E9491051092C1
:100AA00054018093550108950E944505089561E021
:100AB00070E080E290E00E94EC17809352019093E6
:100AC0005301109254011092550161E070E080E2F0
:100AD00090E00E94EC178093570190935801109278
:100AE000590110925A010E94C10708950F931F9354
:100AF0008C01862F0E948D0581EC94E00E942E06C9
:100B000087E994E00E942906C8010E9457051F91B9
:100B10000F9108950E9476050895880F8093BA007A
:100B20000895982F413210F040E02FC0809161016C
:100B30008823E1F781E0809361018FEF8093720158
:100B40001092690140936A01990F9160909362013C
:100B500085EE8093BC00809161018130E1F380914A
:100B60006901841710F440916901A0916701B09167
:100B7000680120E030E007C0FB01E20FF31F8D9118
:100B800080832F5F3F4F2417B8F3842F08951F935E
:100B9000582F122F413210F081E03CC0809161014A
:100BA0008823E1F782E0809361018FEF80937201E7
:100BB0001092690140936A01A0916701B0916801A8
:100BC000FB0102C081918D938E2F861B8417D0F379
:100BD000852F90E0880F991F8093620185EE8093A6
:100BE000BC00112321F0809161018230E1F38091FA
:100BF00072018F3F11F480E00DC08091720180324C
:100C000011F482E007C080917201803311F084E01A
:100C100001C083E01F910895482F613210F081E0F8
:100C2000089580916101843011F082E0089560930D
:100C30006E01A0916B01B0916C01842F9C01F901B0
:100C400002C081918D938E2F841B8617D0F380E094
:100C500008959093660180936501089590936401CF
:100C6000809363010895882311F085EC01C085E825
:100C70008093BC00089585ED8093BC008091BC00FA
:100C800084FDFCCF10926101089585EC8093BC0037
:100C90001092610108951F920F920FB60F921124C6
:100CA0006F937F938F939F93EF93FF938091B900FE
:100CB00090E0887F90708036910509F4E2C081361B
:100CC0009105CCF58832910509F47BC089329105F4
:100CD000B4F48031910509F46FC0813191053CF481
:100CE000009709F438C1089709F040C165C0883100
:100CF000910509F466C0809709F038C17FC080343F
:100D0000910509F4A3C08134910544F48033910521
:100D100009F47FC0C89709F029C186C080359105C4
:100D200009F486C08835910509F495C08834910589
:100D300009F01CC19EC08839910509F404C18939A4
:100D40009105ECF48837910509F49BC0893791052A
:100D50004CF48836910509F494C08037910509F068
:100D600005C18FC08838910509F4EDC0803991051F
:100D700009F48DC08038910509F0F8C088C0803B27
:100D8000910509F4B2C0813B91054CF4803A91057C
:100D900009F491C0883A910509F0E8C0A6C0803CEA
:100DA000910509F4D4C0883C910509F4D0C0883B72
:100DB000910509F0DBC0B1C0809162018093BB0056
:100DC000C0C09091690180916A01981778F4909160
:100DD0006901E0916701F0916801E90FF11D8081DF
:100DE0008093BB009F5F90936901ABC085ED8093BA
:100DF000BC008091BC0084FDFCCFB6C080E2809333
:100E0000720185ED8093BC008091BC0084FDFCCF15
:100E1000ABC080E38093720185ED8093BC0080912C
:100E2000BC0084FDFCCFA0C088E3809372018FC01A
:100E3000809169019091BB00E0916701F091680198
:100E4000E80FF11D90838F5F809369019091690194
:100E500080916A0174C0809169019091BB00E0911A
:100E60006701F0916801E80FF11D90838F5F809317
:100E7000690185ED8093BC008091BC0084FDFCCFAE
:100E800073C083E080936101109271015AC0809118
:100E90007101803208F057C0809171019091BB00C0
:100EA000E0916F01F0917001E80FF11D90838F5F69
:100EB0008093710146C080917101803248F4809125
:100EC0007101E0916F01F0917001E80FF11D108246
:100ED00060917101E0916501F091660170E080918F
:100EE0006F0190917001099532C084E08093610197
:100EF00010926D0110926E01E0916301F091640116
:100F0000099580916E01882341F481E080936E0100
:100F1000E0916B01F0916C01108290916D01E09174
:100F20006B01F0916C01E90FF11D80818093BB0092
:100F30009F5F90936D0190916D0180916E01981764
:100F400010F485EC01C085E88093BC000FC085ECEF
:100F50008093BC0009C01092720185ED8093BC00A3
:100F60008091BC0084FDFCCF10926101FF91EF9154
:100F70009F918F917F916F910F900FBE0F901F9057
:100F8000189510926101449A459AE9EBF0E080814E
:100F90008E7F808380818D7F808388E48093B800FA
:100FA00085E48093BC0061E070E080E290E00E9404
:100FB000EC17809367019093680161E070E080E234
:100FC00090E00E94EC1780936B0190936C0161E0BC
:100FD00070E080E290E00E94EC1780936F019093A4
:100FE000700108959C0186E0220F331F8A95E1F776
:100FF000205F3F4FC9010895AF92CF92EF920F93B8
:1010000036E0A32E27E0C22E98E0E92E05E024E08A
:1010100043E062E083E791E00E9418032DE044E1A1
:1010200050E060E070E081E891E00E9418022BE05F
:1010300044E150E060E070E08BE891E00E9418022B
:101040002AE044E150E060E070E085E991E00E9430
:10105000180229E044E150E060E070E08FE991E09F
:101060000E9418022CE044E150E060E070E089EA60
:1010700091E00E9418020F91EF90CF90AF900895E9
:10108000EF92FF920F931F937C0103E711E0C801D9
:101090000E941003B701C8010E9405131F910F9110
:1010A000FF90EF900895EF92FF921F93CF93DF93FD
:1010B000EC0183E791E00E941003DE010D90002017
:1010C000E9F77D010894E108F108EC1AFD0AB1E1A5
:1010D000EB16F104B4F01889188ABE0183E791E099
:1010E0000E940513188B41E050E060E070E083E758
:1010F00091E00E94DC0281E2E816F1040CF018A2F3
:101100006096BE0183E791E00E940513DF91CF91C5
:101110001F91FF90EF9008950F931F93CF93DF934C
:101120008C01EA01672B29F0BC0187EC91E00E9459
:101130004413CD2B19F0C8010E945308DF91CF91C1
:101140001F910F910895EF92FF920F931F93DF93DA
:10115000CF93CDB7DEB7A9970FB6F894DEBF0FBE19
:10116000CDBF4AE050E08E010F5F1F4FB8010E94D3
:101170009E19E3EFF2E06591749147E0E42EF12CC3
:10118000EC0EFD1EC7010E948919B801CE014D96D3
:101190000E94971941E050E061E070E0C7010E94B1
:1011A0008C0868EB7BE080E090E00E94EF14A99649
:1011B0000FB6F894DEBF0FBECDBFCF91DF911F9168
:1011C0000F91FF90EF900895CF92DF92EF92FF92F0
:1011D0000F931F93DF93CF93CDB7DEB7EC970FB686
:1011E000F894DEBF0FBECDBF6B017A01FC01EE0F9C
:1011F000FF1FE552FD4F659174918E010F5F1F4FE8
:10120000C8010E948919A701B601C8010E948C0873
:10121000EC960FB6F894DEBF0FBECDBFCF91DF9135
:101220001F910F91FF90EF90DF90CF900895CF9393
:10123000DF93C0E0D0E040E050E061E070E0CE013C
:101240000E94E4082196CA30D105A9F7DF91CF9119
:1012500008956F927F928F929F92AF92BF92CF929A
:10126000DF92EF92FF920F931F93CF93DF936C0166
:101270005B010E94E1147B018C0140E050E061E0E1
:1012800070E085E190E00E94E4083601882477FC54
:101290008094982C6E0C7F1C801E911E7501002777
:1012A000F7FC0095102F0E94E1146615770588055C
:1012B0009905B8F4C0E0D0E061E08EE00E94F4153A
:1012C000C801B7010E94EF1460E08EE00E94F4159F
:1012D000C801B7010E94EF142196CA30D10561F709
:1012E000E2CFDF91CF911F910F91FF90EF90DF90B0
:1012F000CF90BF90AF909F908F907F906F90089508
:1013000062E070E08AE090E00E942909089541E0DF
:1013100050E061E070E082E190E00E94E40868EE55
:1013200073E080E090E00E94EF1441E050E061E063
:1013300070E087E190E00E94E40864E873E080E0F8
:1013400090E00E94EF140895CF92DF92EF92FF9207
:101350000F931F938C016B0163E7E62E61E0F62E7D
:10136000C7010E941003B801C7010E94051341E0A4
:1013700050E060E070E0C7010E94DC02B601C701E6
:101380000E9405131F910F91FF90EF90DF90CF9077
:10139000089580E691E00E9457050895DF92EF924C
:1013A000FF920F931F938B01D42E70E6E72E71E00E
:1013B000F72EBC01C7010E947404612F70E0C701C1
:1013C0000E9400051070B801C7010E9400056D2D34
:1013D00070E0C7010E940005C7010E9433056AE062
:1013E00070E080E090E00E94EF141F910F91FF9059
:1013F000EF90DF900895482F60E070E080E590E086
:101400000E94CE090895CF92DF92EF92FF920F9340
:101410001F936C018B017A01452F550F550B0E94CC
:10142000CE090F5F1F4F4E2DB801C6010E94CE0995
:101430001F910F91FF90EF90DF90CF900895AB0137
:10144000F6E0880F991FFA95E1F7805C9F4FBC0189
:1014500080E590E00E94030A0895AB01A6E0880FA2
:10146000991FAA95E1F7C096BC0180E590E00E9423
:10147000030A0895AB01B6E0880F991FBA95E1F70A
:101480008096BC0180E590E00E94030A0895CF9207
:10149000DF92EF92FF920F931F93CF93DF936C0134
:1014A0007B018A01C0E0D0E0F801EC0FFD1FBE0116
:1014B0006E0D7F1D4081C6010E94CE092196C0316C
:1014C000D10591F7DF91CF911F910F91FF90EF9090
:1014D000DF90CF900895AB0126E0880F991F2A95E1
:1014E000E1F74096BC0180E590E00E94470A08952C
:1014F000AF92BF92CF92DF92EF92FF920F931F9322
:101500007C016A0159010E946B0AB601C7010E9461
:101510003A0AB501C7010E942D0AB801C7010E940D
:101520001F0A1F910F91FF90EF90DF90CF90BF9017
:10153000AF900895AF92BF92CF92DF92EF92FF9259
:101540000F931F93CF93DF937C018B015A016901A5
:10155000BC0180E691E00E947404612F70E080E697
:1015600091E00E9400051070B80180E691E00E94B1
:10157000000580E691E00E943305A601B70180E6F0
:1015800091E00E945405C0E0D0E00FC080E691E0F9
:101590000E947E04882341F080E691E00E9484044A
:1015A000F501EC0FFD1F80832196CC15DD0574F34A
:1015B000DF91CF911F910F91FF90EF90DF90CF902F
:1015C000BF90AF90089520E130E00E949A0A0895FC
:1015D000AB0136E0880F991F3A95E1F74096BC01C0
:1015E00080E590E00E94E30A08950F931F93DF9334
:1015F000CF93CDB7DEB760970FB6F894DEBF0FBEBE
:10160000CDBF8E010F5F1F4FB8010E94E80A41E075
:1016100050E061E070E0C8010E948C0860960FB64F
:10162000F894DEBF0FBECDBFCF91DF911F910F9118
:101630000895EF92FF920F931F937C018B01BC01E1
:1016400080E691E00E947404612F70E080E691E0F2
:101650000E9400051070B80180E691E00E9400052C
:1016600080E691E00E94330541E050E0B70180E65A
:1016700091E00E94540580E691E00E947E04882358
:1016800011F48FEF04C080E691E00E9484041F9162
:101690000F91FF90EF90089560E070E080E590E09A
:1016A0000E94190B90E008950E944C0B01960E9435
:1016B000FB090895AF92BF92CF92DF92EF92FF9213
:1016C0000F931F93DF93CF93CDB7DEB764970FB619
:1016D000F894DEBF0FBECDBF0E944C0B7C0100E032
:1016E00010E05E010894A11CB11C45E0C42ED12C71
:1016F000CC0EDD1E1CC04AE050E0B501C8010E94BE
:101700009E19BC0187EC91E00E9405136EE071E028
:1017100087EC91E00E940513B601C8010E94E80A17
:10172000B60187EC91E00E9444130F5F1F4F0E1526
:101730001F050CF360E171E087EC91E00E94441317
:1017400064960FB6F894DEBF0FBECDBFCF91DF9188
:101750001F910F91FF90EF90DF90CF90BF90AF90CF
:101760000895CF93DF93EC010E944C0B209711F06A
:101770009E0101C09C0121503040C901DF91CF91F1
:101780000895CF93DF93EC010E944C0B0197C8178B
:10179000D90719F420E030E003C09E012F5F3F4FCE
:1017A000C901DF91CF910895CF92DF92EF92FF921E
:1017B0000F931F936C017B010E94190B182F00E0FF
:1017C0000894E11CF11CB701C6010E94190B080F17
:1017D000111DC8011F910F91FF90EF90DF90CF90E6
:1017E000089556E0880F991F5A95E1F7805C9F4F46
:1017F000BC0180E590E00E94D40B089566E0880F5C
:10180000991F6A95E1F7C096BC0180E590E00E94BF
:10181000D40B08950F931F938B010E94FE0B74E06D
:10182000000F111F7A95E1F7080F191FC8011F91CA
:101830000F910895CF92DF92EF92FF920F931F9333
:10184000CF93DF936C017B01603271055CF040E067
:1018500050E061E070E08BE190E00E94E4088FEFDF
:101860009FEF1DC06115710519F4C0E1D8E00CC0EF
:101870008B0101501040C8010E94F10BBC01C8014E
:101880000E940A0CEC0160960E94540B0FEF10E0CE
:101890009E0140E050E0B601C7010E94780ADF9146
:1018A000CF911F910F91FF90EF90DF90CF9008950F
:1018B000AF92BF92CF92DF92EF92FF920F931F935E
:1018C000CF93DF935C016B010E944C0B7C0180E2A3
:1018D000E816F10459F440E050E061E070E08BE17B
:1018E00090E00E94E4088FEF9FEF1CC0E114F10428
:1018F00019F4C0E1D8E00CC0870101501040C801C4
:101900000E94F10BBC01C8010E940A0CEC01609618
:101910000E94540B86019E0140E050E0B501C701D2
:101920000E94780ADF91CF911F910F91FF90EF9065
:10193000DF90CF90BF90AF9008950F931F938A01CF
:101940000E940A0CA801BC0180E590E00E94470AB1
:101950001F910F9108950F931F938A010E940A0C03
:10196000A801BC0180E590E00E94E30A1F910F915D
:1019700008950F931F93DF93CF93CDB7DEB7609792
:101980000FB6F894DEBF0FBECDBF8E010F5F1F4FA5
:10199000A8010E94AB0C41E050E061E070E0C8019A
:1019A0000E948C0860960FB6F894DEBF0FBECDBFC4
:1019B000CF91DF911F910F910895E6E0880F991F55
:1019C000EA95E1F78096BC0180E590E00E94D40B97
:1019D00008950F931F938C010E94DD0C0196BC01AA
:1019E000C8010E943A0A1F910F910895EF92FF9249
:1019F0000F931F93CF93DF93EC017B010E94F10BB8
:101A00008C01CE010E94DD0C08171907F9F4B7010B
:101A100087EC91E00E944413BE0187EC91E00E94A4
:101A20005414B80187EC91E00E945414B80187EC7B
:101A300091E00E94541440E050E061E070E08AE1DF
:101A400090E00E94E4080FEF1FEF10C0CE010E944B
:101A5000DD0C8C01BC01CE010E940A0CA701B8016B
:101A6000CE010E949D0CCE010E94E90CC801DF91BD
:101A7000CF911F910F91FF90EF900895AF92BF9279
:101A8000CF92DF92EF92FF920F931F93DF93CF934A
:101A9000CDB7DEB761970FB6F894DEBF0FBECDBFEE
:101AA0007C01DC010D900020E9F78D010150104010
:101AB000081B190BFC0190819336D9F402311105F2
:101AC0000CF076C06EE571E0C70101960E94580CDB
:101AD00041E050E061E070E08CE190E00E94E408B9
:101AE0000E944C0B0197BC0187EC91E00E945414BA
:101AF0005FC0892F80538A3008F04CC0CC24DD248D
:101B000009C0F701EC0DFD1D8081803231F0089491
:101B1000C11CD11CC016D106A4F3F701EC0DFD1DAC
:101B20001082C7010E946B195C01023111050CF093
:101B30003FC041E050E061E070E08DE190E00E9444
:101B4000E408B50187EC91E00E94541486010F5F10
:101B50001F4F0E0D1F1DB80187EC91E00E9444132A
:101B6000B801C5010E94F60C8C01BC0187EC91E024
:101B70000E9454147E010894E11CF11CA701B801D5
:101B8000C5010E94AB0C198AB70187EC91E00E9455
:101B900044130EC0983761F441E050E061E070E01A
:101BA0008EE190E00E94E40880E090E00E94FB0952
:101BB00087EC91E00E941D1361960FB6F894DEBF8A
:101BC0000FBECDBFCF91DF911F910F91FF90EF908E
:101BD000DF90CF90BF90AF900895CF92DF92FF92A9
:101BE0000F931F93DF93CF93CDB7DEB76D970FB6EB
:101BF000F894DEBF0FBECDBF41E050E061E070E081
:101C000086E190E00E94E4086E010894C11CD11C9A
:101C100063E171E087EC91E00E94051300E010E0C1
:101C200087EC91E00E94ED128823D1F387EC91E0DC
:101C30000E94EA12F82E8DE0F81619F0EAE0FE167E
:101C400029F40C0D1D1DF80110821DC0F3E0FF16D4
:101C5000D1F08FE7F81621F3F601E00FF11FF082C3
:101C60006F2D87EC91E00E94F51283E791E00E94CE
:101C700010036F2D83E791E00E94D4020F5F1F4F86
:101C80000C31110569F687EC91E00E941D131E8E40
:101C9000C6010E943E0DBCCF8F929F92AF92BF9221
:101CA000CF92DF92EF92FF920F931F93DF93CF9328
:101CB000CDB7DEB764970FB6F894DEBF0FBECDBFC9
:101CC0000E944C0B5C01EE24FF244E010894811C01
:101CD000911CF5E0CF2ED12CCC0EDD1E3AC04AE08F
:101CE00050E0B401C7010E949E19BC0187EC91E04D
:101CF0000E9405136EE071E087EC91E00E940513ED
:101D0000B601C7010E94E80AB60187EC91E00E9483
:101D10004413C7010E94DD0CBC0187EC91E00E94D6
:101D2000541400E010E00CC0A601B801C7010E94E5
:101D3000AB0CB60187EC91E00E9444130F5F1F4F7C
:101D4000C7010E94DD0C0817190774F30894E11C01
:101D5000F11CEA14FB041CF260E171E087EC91E0F5
:101D60000E94441364960FB6F894DEBF0FBECDBF39
:101D7000CF91DF911F910F91FF90EF90DF90CF9067
:101D8000BF90AF909F908F900895CF93DF93EB011A
:101D90000E94DD0C209711F0BE0101C0BC01615012
:101DA0007040CB01DF91CF910895CF93DF93EB018A
:101DB0000E94DD0C0197C817D90719F460E070E0A4
:101DC00003C0BE016F5F7F4FCB01DF91CF910895BC
:101DD000DF92EF92FF920F931F93CF93DF938B01CC
:101DE000F42EE52ED22EBC0180E691E00E94740410
:101DF000612F70E080E691E00E9400051070B8014C
:101E000080E691E00E9400052F2D3E2DC901EC01D6
:101E100000E006C0699180E691E00E94D8040F5F5F
:101E20000D15C0F380E691E00E943305DF91CF915C
:101E30001F910F91FF90EF90DF90089581E891E05E
:101E40000E94E9018BE891E00E94E90185E991E0B7
:101E50000E94E9018FE991E00E94E90189EA91E09D
:101E60000E94E90181E891E00E94E50120912901A9
:101E700030912A0182179307D1F081E891E00E9406
:101E8000E501892B09F0E4C08091290190912A0194
:101E90008130910509F0DCC09093B4018093B301C7
:101EA0000AC08091290190912A01892B21F4109276
:101EB000B4011092B3018BE891E00E94E5012091FA
:101EC00027013091280182179307D1F08BE891E028
:101ED0000E94E501892B09F0C3C0809127019091F0
:101EE00028018130910509F0BBC09093B80180931F
:101EF000B7010AC08091270190912801892B21F414
:101F00001092B8011092B70185E991E00E94E501B5
:101F1000209125013091260182179307D1F085E9A0
:101F200091E00E94E501892B09F0A2C08091250172
:101F3000909126018130910509F09AC09093BC01DF
:101F40008093BB010AC08091250190912601892BC5
:101F500021F41092BC011092BB018FE991E00E9424
:101F6000E501209123013091240182179307D1F0DC
:101F70008FE991E00E94E501892B09F081C08091F1
:101F80002301909124018130910509F079C090934B
:101F9000C0018093BF010AC0809123019091240168
:101FA000892B21F41092C0011092BF0189EA91E0BF
:101FB0000E94E501209121013091220182179307AF
:101FC000D1F089EA91E00E94E501892B09F060C017
:101FD00080912101909122018130910509F058C032
:101FE0009093C4018093C3010AC080912101909114
:101FF0002201892B21F41092C4011092C30181E8BF
:1020000091E00E94E50190932A01809329018BE8D9
:1020100091E00E94E501909328018093270185E9D2
:1020200091E00E94E50190932601809325018FE9BC
:1020300091E00E94E501909324018093230189EAB5
:1020400091E00E94E501909322018093210108957F
:1020500081E891E00E94E501019709F02CCF21CFA2
:102060008BE891E00E94E501019709F04DCF42CF46
:1020700085E991E00E94E501019709F06ECF63CFF9
:102080008FE991E00E94E501019709F08FCF84CF9D
:1020900089EA91E00E94E501019709F0B0CFA5CF50
:1020A00060E08DE00E94D61560E08BE00E94D615BE
:1020B00060E08AE00E94D61560E089E00E94D615B3
:1020C00060E08CE00E94D6150895EF92FF920F9386
:1020D0001F930E94E1147B018C010E941E0F8091CE
:1020E0002001803709F4E8C181373CF4833609F4D4
:1020F0004EC08E3609F03BC207C0823709F4D6C005
:10210000853709F034C231C20E9487090E941E0F30
:1021100062E370E080E090E00E94EF140E941E0FE6
:1021200081E891E00E94E501892B49F441E050E00B
:1021300061E070E08AE090E00E94E4080AC00E943A
:102140004C0B892B51F467E171E087EC91E00E9420
:10215000441385E7809320010AC210924001109237
:102160003F0183E68093200141E050E061E070E0B0
:1021700083E190E00E94E40860ED77E080E090E089
:102180000E94EF1480913F019091400116C0809110
:10219000B7019091B801892B31F48091BF019091E2
:1021A000C001892B69F080913F01909140010E940C
:1021B000C10B9093400180933F010E94F50AD7C163
:1021C0008091BB019091BC01892B39F080913F0136
:1021D000909140010E94B10BECCF8091B30190919E
:1021E000B401892B39F48091C3019091C401892BEA
:1021F00009F4BDC180913F01909140010E94DD0C26
:10220000181619060CF04BC082E78093200110923B
:1022100038011092370180E69AEEA0E0B0E0E80EB7
:10222000F91E0A1F1B1FE0923901F0923A01009338
:102230003B0110933C0180EA95E1AFEFBFEFE80E60
:10224000F91E0A1F1B1F80913F01909140010E94BF
:10225000DD0C0197AA2797FDA095BA2FBC01CD01EF
:102260000E948B1770933E0160933D01E092310113
:10227000F092320100933301109334012EEE32E0DC
:10228000309336012093350180913F0190914001B8
:102290000E94B90C1092300110922F0168C141E0E8
:1022A00050E061E070E08BE090E022C08091390165
:1022B00090913A01A0913B01B0913C01E816F906DA
:1022C0000A071B07C4F064E070E08AEF90E00E9408
:1022D000290980913701909138010E94A30883E673
:1022E0008093200141E050E061E070E083E190E004
:1022F0000E94E4083CC18091350190913601AA27E3
:1023000097FDA095BA2F2091310130913201409173
:10231000330150913401820F931FA41FB51FE8169B
:10232000F9060A071B07BCF1E0923101F092320175
:10233000009333011093340180912F01909130016B
:1023400001969093300180932F010E948009809123
:102350002F01909130014F97F4F0109230011092BC
:102360002F012091350130913601253631059CF041
:10237000B901882777FD8095982F0E940A1A20E0DE
:1023800030E040E45FE30E946E1A0E94D719709318
:102390003601609335018091B3019091B401892B8E
:1023A00091F041E050E061E070E088E190E00E944F
:1023B000E408E0922B01F0922C0100932D01109380
:1023C0002E0180E7C7CE8091B7019091B801892B8B
:1023D000D9F060913F017091400187EC91E00E943B
:1023E000541460913D0170913E0187EC91E00E9490
:1023F000541460913D0170913E0180913F01909194
:1024000040010E94D50E10C08091BB019091BC018B
:10241000892BB1F060913D0170913E0180913F01A7
:10242000909140010E94C50E90933E0180933D0122
:10243000BC0180913F01909140010E94B90C97C06E
:102440008091C3019091C401892B09F490C06091DF
:102450003F017091400187EC91E00E94541460911B
:102460003D0170913E0187EC91E00E94541460910F
:102470003D0170913E0180913F01909140010E9489
:10248000D50E90933E0180933D01BC0180913F01A8
:10249000909140010E94B90C8091370190913801D0
:1024A0000196909338018093370161E070E08AE0F3
:1024B00090E00E9429095BC08091B3019091B40122
:1024C000892B09F454C020912B0130912C014091AB
:1024D0002D0150912E018091310190913201A091F6
:1024E0003301B0913401821B930BA40BB50B8E0DFD
:1024F0009F1DA01FB11F8093310190933201A093C3
:102500003301B09334018091390190913A01A09147
:102510003B01B0913C01821B930BA40BB50B8E0DBC
:102520009F1DA01FB11F8093390190933A01A09382
:102530003B01B0933C0182E78093200160913D0113
:1025400070913E0180913F01909140010E94B90C31
:102550008FEF9FEFAFEFBFEF80932B0190932C0194
:10256000A0932D01B0932E0102C00E94ED0D1F918A
:102570000F91FF90EF90089540E855E260E070E021
:1025800087EC91E00E94F0120E94C9090E9450104D
:1025900061E08EE00E94D6158EE68093200183E0F4
:1025A0000E9464150E94E71708950E9427150E9453
:1025B000BC120E946510FDCF85E491E09093C801A4
:1025C0008093C7010895862F0E94C41608950E9423
:1025D000FC1608950E94DD1608950E94CC160895F9
:1025E000CB01BA010E948B160895DC01ED91FC919C
:1025F0000190F081E02D09950895DC01ED91FC91A9
:102600000190F081E02D099508950F931F93CF93CA
:10261000DF938C01EB0109C02196D801ED91FC916B
:102620000190F081E02DC801099568816623A1F72A
:10263000DF91CF911F910F9108950F931F938C01FC
:10264000DC01ED91FC910190F081E02D6DE00995A8
:10265000D801ED91FC910190F081E02D6AE0C80174
:1026600009951F910F9108950F931F938C01DC0121
:10267000ED91FC910190F081E02D0995C8010E9437
:102680001D131F910F9108950F931F938C010E94AA
:102690000513C8010E941D131F910F9108950F93F8
:1026A0001F938C01DC01ED91FC910190F081E02DF4
:1026B0000995C8010E941D131F910F9108952F9233
:1026C0003F924F925F926F927F928F929F92AF92C2
:1026D000BF92CF92DF92EF92FF920F931F93DF93FF
:1026E000CF93CDB7DEB7A0970FB6F894DEBF0FBE7D
:1026F000CDBF1C016A017B014115510561057105C2
:1027000049F4DC01ED91FC910190F081E02D60E352
:10271000099554C0882499245401422E55246624D6
:10272000772401E010E00C0F1D1F080D191DC701D3
:10273000B601A30192010E942B1BF801608308944B
:10274000811C911CA11CB11CC701B601A3019201FF
:102750000E942B1BC901DA016C017D01C114D10457
:10276000E104F104F1F681E0E82EF12CEC0EFD1EFF
:10277000E80CF91C3E010894611C711CD501C401D0
:102780000197A109B1096C01C818D90814C0F60154
:10279000EE0DFF1D60816A3010F4605D01C0695C60
:1027A000D101ED91FC910190F081E02DC1010995DD
:1027B0000894E108F1086E147F0449F7A0960FB65B
:1027C000F894DEBF0FBECDBFCF91DF911F910F9167
:1027D000FF90EF90DF90CF90BF90AF909F908F9041
:1027E0007F906F905F904F903F902F9008952AE0D8
:1027F0000E945F1308950F931F938C010E94F7139B
:10280000C8010E941D131F910F910895AB0160E054
:1028100070E00E94F71308950F931F938C01AB0192
:1028200060E070E00E94F713C8010E941D131F9121
:102830000F910895EF92FF920F931F93CF93DF9321
:10284000EC017A018B0177FF0FC0E881F9810190DB
:10285000F081E02D6DE2099510950095F094E094DB
:10286000E11CF11C011D111D2AE0B801A701CE01D8
:102870000E945F13DF91CF911F910F91FF90EF9016
:1028800008950F931F938C010E941A14C8010E948F
:102890001D131F910F910895AB01662757FD609599
:1028A000762F0E941A1408950F931F938C01AB0189
:1028B000662757FD6095762F0E941A14C8010E9462
:1028C0001D131F910F910895DC012115310541F46D
:1028D000ED91FC910190F081E02D642F0995089510
:1028E0002A30310519F40E941A1408950E945F13CA
:1028F00008950F931F938C010E946414C8010E94D5
:102900001D131F910F9108951F920F920FB60F92F2
:1029100011242F938F939F93AF93BF938091C901FD
:102920009091CA01A091CB01B091CC018050904C04
:10293000AF4FBF4F8093C9019093CA01A093CB01C1
:10294000B093CC0127C08091C9019091CA01A09198
:10295000CB01B091CC0180589E43A040B040809301
:10296000C9019093CA01A093CB01B093CC0180918F
:10297000CD019091CE01A091CF01B091D0010196EF
:10298000A11DB11D8093CD019093CE01A093CF01E5
:10299000B093D0018091C9019091CA01A091CB015F
:1029A000B091CC0181589E43A040B04060F6BF91E9
:1029B000AF919F918F912F910F900FBE0F901F900D
:1029C00018958FB7F8942091CD013091CE014091A8
:1029D000CF015091D0018FBFB901CA010895EF9284
:1029E000FF920F931F937B018C018FB7F894409156
:1029F000CD015091CE016091CF017091D0018FBF78
:102A00002FB7F8948091CD019091CE01A091CF0184
:102A1000B091D0012FBF841B950BA60BB70B8E1561
:102A20009F05A007B10760F31F910F91FF90EF90F2
:102A30000895019759F0FC01EE0FFF1FEE0FFF1FE5
:102A400032978FB7F8943197F1F78FBF0895789444
:102A500084B5826084BD84B5816084BD85B58260A3
:102A600085BD85B5816085BDEEE6F0E08081816041
:102A70008083E1E8F0E080818260808380818160F2
:102A80008083E0E8F0E0808181608083E1EBF0E02A
:102A9000808184608083E0EBF0E0808181608083CE
:102AA000EAE7F0E0808184608083808182608083B7
:102AB0008081816080838081806880831092C100E2
:102AC00008958093470108958F70909147019295E2
:102AD000990F990F907C982B90937C0080917A00AD
:102AE000806480937A0080917A0086FDFCCF2091EB
:102AF000780040917900942F80E030E0282B392B2A
:102B0000C90108951F93CF93DF93182FEB0161E064
:102B10000E94D615E12FF0E0E05BFC4F84918330FA
:102B200051F480918000806880938000D093890068
:102B3000C093880037C0843051F480918000806257
:102B400080938000D0938B00C0938A002BC081308B
:102B500029F484B5806884BDC7BD24C0823029F4BF
:102B600084B5806284BDC8BD1DC0863041F48091AB
:102B7000B00080688093B000C093B30013C087306A
:102B800041F48091B00080628093B000C093B400A3
:102B900009C0C038D10514F460E001C061E0812FA4
:102BA0000E94F415DF91CF911F910895282F30E0F6
:102BB000C901845C9C4FFC019491285D3C4FF90154
:102BC0008491882381F0E82FF0E0E75EFC4FE491E8
:102BD000F0E0662329F4808190958923808308950D
:102BE0008081892B80830895482F50E0CA01805B43
:102BF0009C4FFC012491CA01845C9C4FFC01949180
:102C0000485D5C4FFA0134913323C1F1222331F145
:102C1000233021F4809180008F7705C0243031F477
:102C2000809180008F7D8093800018C0213019F43E
:102C300084B58F7704C0223021F484B58F7D84BDA4
:102C40000DC0263021F48091B0008F7705C0273069
:102C500029F48091B0008F7D8093B000E32FF0E0E5
:102C6000E25EFC4FE491F0E0662329F480819095C8
:102C70008923808308958081892B80830895482F3C
:102C800050E0CA01805B9C4FFC012491CA01845C26
:102C90009C4FFC019491485D5C4FFA0134913323C1
:102CA00019F420E030E035C0222331F1233021F443
:102CB000809180008F7705C0243031F480918000AE
:102CC0008F7D8093800018C0213019F484B58F77F0
:102CD00004C0223021F484B58F7D84BD0DC0263020
:102CE00021F48091B0008F7705C0273029F48091BE
:102CF000B0008F7D8093B000E32FF0E0ED5DFC4FDE
:102D0000E491F0E0808120E030E0892311F021E0BF
:102D100030E0C9010895EF92FF920F931F937B015A
:102D20008C0122E030E040E050E00E944D1B205C2E
:102D30003D4B404F5F4FCA01B901A80197010E9466
:102D40004D1BC901DA010197A109B109292F3A2FB9
:102D50004B2F552747FD5A950196A11DB11D209374
:102D6000C50081508093C400E1ECF0E08081806177
:102D700080838081886080838081806880831F91C8
:102D80000F91FF90EF900895982F8091C00085FFDC
:102D9000FCCF9093C60008958091D1019091D2010B
:102DA00080589F4F2091D3013091D401821B930B07
:102DB00060E870E00E94181B08954091D301509183
:102DC000D4018091D1019091D2018417950719F413
:102DD0002FEF3FEF0FC0FA01EB52FE4F2081CA01E7
:102DE000019660E870E00E94181B9093D4018093D4
:102DF000D30130E0C90108958091D3019091D401AD
:102E00009093D2018093D10108951F920F920FB633
:102E10000F9211242F933F934F935F936F937F9360
:102E20008F939F93AF93BF93EF93FF934091C6000F
:102E3000E091D101F091D201CF01019660E870E0FC
:102E40000E94181B9C018091D3019091D4012817F6
:102E5000390739F0EB52FE4F40833093D201209373
:102E6000D101FF91EF91BF91AF919F918F917F9190
:102E70006F915F914F913F912F910F900FBE0F90E7
:102E80001F9018952F923F924F925F926F927F9270
:102E90008F929F92AF92BF92CF92DF92EF92FF926A
:102EA0000F931F93DF93CF93CDB7DEB73B014C0158
:102EB00019012A016D897E898F89988D6A197B098C
:102EC0008C099D09621A730A840A950AA401930168
:102ED0000E94F91AE218F30804091509A8019701DC
:102EE0000E944D1B2A0D3B1D4C1D5D1DB901CA01E1
:102EF000CF91DF911F910F91FF90EF90DF90CF90D6
:102F0000BF90AF909F908F907F906F905F904F9009
:102F10003F902F900895AF92BF92CF92DF92EF92A1
:102F2000FF920F931F935B016C0161157105810581
:102F3000910529F420E030E040E050E01FC00E94FD
:102F40005B197C010E945B190027F7FC0095102F8C
:102F50008701FF24EE24AA2797FDA095BA2FE80E3B
:102F6000F91E0A1F1B1FC801B701A60195010E9487
:102F70004D1BAC01CB01DA019C01AD01B901CA01C5
:102F80001F910F91FF90EF90DF90CF90BF90AF9087
:102F90000895EF92FF920F931F937B018C016217AC
:102FA00073078407950764F4261B370B480B590BEE
:102FB000CA01B9010E948B17E60EF71E081F191FE0
:102FC000B701C8011F910F91FF90EF9008950097EE
:102FD00011F00E94601908950F931F93CF93DF9310
:102FE000689F8001699F100D789F100D1124C80102
:102FF0000E940818EC01009729F0A80160E070E039
:103000000E949019CE01DF91CF911F910F910895E9
:10301000CF93DF93BC018230910510F462E070E041
:10302000A0915702B0915802ED01E0E0F0E040E0DD
:1030300050E021C0888199818617970769F48A81B9
:103040009B81309719F09383828304C09093580238
:1030500080935702FE0134C06817790738F4411590
:10306000510519F08417950708F4AC01FE018A8117
:103070009B819C01E9012097E9F641155105A9F1D1
:10308000CA01861B970B049708F4BA01E0E0F0E050
:103090002AC08D919C91119784179507F9F46417B4
:1030A000750781F412968D919C911397309719F0C2
:1030B0009383828304C09093580280935702FD014A
:1030C00032964CC0CA01861B970BFD01E80FF91F11
:1030D0006193719302978D939C9340C0FD0182810F
:1030E00093819C01D9011097A1F68091550290918E
:1030F0005602892B41F480914A0190914B019093A3
:1031000056028093550240914C0150914D0141155A
:10311000510541F44DB75EB7809148019091490146
:10312000481B590B2091550230915602CA01821B4F
:10313000930B8617970780F0AB014E5F5F4F8417A4
:10314000950750F0420F531F50935602409355027B
:10315000F9016193719302C0E0E0F0E0CF01DF91EB
:10316000CF910895CF93DF93009709F450C0EC01FD
:1031700022971B821A82A0915702B0915802109791
:1031800009F140E050E0AC17BD0708F1BB83AA830A
:10319000FE0121913191E20FF31FAE17BF0779F4C1
:1031A0008D919C911197280F391F2E5F3F4F3983C6
:1031B000288312968D919C9113979B838A83411546
:1031C000510571F4D0935802C093570220C0129653
:1031D0008D919C911397AD01009711F0DC01D3CF35
:1031E000FA01D383C28321913191E20FF31FCE17ED
:1031F000DF0769F488819981280F391F2E5F3F4FBF
:10320000FA01318320838A819B8193838283DF91BA
:10321000CF910895A0E0B0E0E0E1F9E10C948A1BC1
:10322000EC01A880B980CA80DB80A114B104C1047C
:10323000D10441F484E2A82E89EDB82E8BE5C82E86
:1032400087E0D82EC601B5012DE133EF41E050E013
:103250000E944D1B27EA31E440E050E00E94F91A39
:103260007B018C01C601B5012DE133EF41E050E057
:103270000E944D1BCA01B9012CEE34EF4FEF5FEFF6
:103280000E94F91A6E0D7F1D801F911F97FF04C0C9
:103290006150704080409048688379838A839B8323
:1032A0009B013F77C901CDB7DEB7EAE00C94A61BBE
:1032B0000E940A1908958EE491E00E940A19089567
:1032C000A0E0B0E080934E0190934F01A093500195
:1032D000B09351010895FC0188279927E894219122
:1032E0002032E9F3293010F02E30C8F32B3241F0B0
:1032F0002D3239F4689404C00E94BF19820F911DC9
:10330000219120532A30C0F31EF4909581959F4F50
:103310000895FB01DC0105900D920020E1F708956E
:10332000DC0101C06D9341505040E0F70895FB016E
:10333000DC0101900D920020E1F70895FB019F014F
:10334000E8944230C4F04532B4F44A3029F497FB93
:103350001EF4909581959F4F642F77270E94681BDC
:10336000805D8A330CF0895D8193CB010097A1F7D2
:1033700016F45DE251931082C9010C94C7197AE0EA
:10338000979F902D879F802D910D11240895DC012A
:10339000FC01672F71917723E1F7329704C07C918C
:1033A0006D9370836291AE17BF07C8F3089504D080
:1033B0006894B1118DC0089570D088F09F5790F037
:1033C000B92F9927B751A0F0D1F0660F771F881F4A
:1033D000991F1AF0BA95C9F712C0B13081F077D0B1
:1033E000B1E0089574C0672F782F8827B85F39F04F
:1033F000B93FCCF3869577956795B395D9F73EF4A9
:1034000090958095709561957F4F8F4F9F4F089550
:10341000E89409C097FB3EF490958095709561956E
:103420007F4F8F4F9F4F9923A9F0F92F96E9BB2724
:103430009395F695879577956795B795F111F8CFA0
:10344000FAF4BB0F11F460FF1BC06F5F7F4F8F4F0B
:103450009F4F16C0882311F096E911C0772321F001
:103460009EE8872F762F05C0662371F096E8862F99
:1034700070E060E02AF09A95660F771F881FDAF7F0
:10348000880F9695879597F9089557FD9058440FA2
:10349000551F59F05F3F71F04795880F97FB991FB3
:1034A00061F09F3F79F08795089512161306140670
:1034B000551FF2CF4695F1DF08C0161617061806FD
:1034C000991FF1CF86957105610508940895E894D8
:1034D000BB2766277727CB0197F908950BD078C0D3
:1034E00069D028F06ED018F0952309F05AC05FC05B
:1034F0001124EECFCADFA0F3959FD1F3950F50E0D2
:10350000551F629FF001729FBB27F00DB11D639F95
:10351000AA27F00DB11DAA1F649F6627B00DA11D3B
:10352000661F829F2227B00DA11D621F739FB00DE1
:10353000A11D621F839FA00D611D221F749F332751
:10354000A00D611D231F849F600D211D822F762FEA
:103550006A2F11249F5750408AF0E1F088234AF0E7
:10356000EE0FFF1FBB1F661F771F881F9150504033
:10357000A9F79E3F510570F014C0AACF5F3FECF34E
:10358000983EDCF3869577956795B795F795E7951F
:103590009F5FC1F7FE2B880F911D9695879597F930
:1035A000089597F99F6780E870E060E008959FEFC5
:1035B00080EC089500240A941616170618060906CA
:1035C000089500240A941216130614060506089599
:1035D000092E0394000C11F4882352F0BB0F40F421
:1035E000BF2B11F460FF04C06F5F7F4F8F4F9F4F61
:1035F0000895629FD001739FF001829FE00DF11D3D
:10360000649FE00DF11D929FF00D839FF00D749F5C
:10361000F00D659FF00D9927729FB00DE11DF91F08
:10362000639FB00DE11DF91FBD01CF011124089565
:1036300097FB092E07260AD077FD04D049D006D083
:1036400000201AF4709561957F4F0895F6F79095D4
:1036500081959F4F0895A1E21A2EAA1BBB1BFD0165
:103660000DC0AA1FBB1FEE1FFF1FA217B307E40761
:10367000F50720F0A21BB30BE40BF50B661F771FB9
:10368000881F991F1A9469F7609570958095909599
:103690009B01AC01BD01CF01089597FB092E0526C2
:1036A0000ED057FD04D0D7DF0AD0001C38F4509557
:1036B0004095309521953F4F4F4F5F4F0895F6F756
:1036C00090958095709561957F4F8F4F9F4F08958E
:1036D000AA1BBB1B51E107C0AA1FBB1FA617B70738
:1036E00010F0A61BB70B881F991F5A95A9F7809554
:1036F0009095BC01CD010895EE0FFF1F0590F49148
:10370000E02D09942F923F924F925F926F927F9299
:103710008F929F92AF92BF92CF92DF92EF92FF92E1
:103720000F931F93CF93DF93CDB7DEB7CA1BDB0B8D
:103730000FB6F894DEBF0FBECDBF09942A88398832
:1037400048885F846E847D848C849B84AA84B98439
:10375000C884DF80EE80FD800C811B81AA81B98145
:10376000CE0FD11D0FB6F894DEBF0FBECDBFED0159
:063770000895F894FFCF5C
:1037760000000000D40200004000140054002000A5
:103786004F4B000A3E20006E6F20776F7264730005
:103796006901000100010001000100FFFFFFFFFFBA
:1037A600FFFFFFFFFFFFFFFFFFFFFFFFFFFFFFFF23
:1037B600FF00000000E31201200059020000010092
:0237C600000001
:00000001FF
